101 121000248 1210002480608080107A094101WFB-W EDI CUST. DATA   WFB-E ACH SPINAT DATA          5200APD TX/FINCL SVC323413684           9666666606CCDAPD - TAX 060802060802214102100002403064962710700543200004001191477   0542151200614007046488KD8BRODY LABORATORIES INCFS0021000024030840820000000100107005430005421512000000000000009666666606                         0210000240306495200ARAR                                9000290001CCD PAYMENT        060807219102100002729414962205100141200004945037059   00004036762394128        VIA LICENSING CORP      0021000027294283820000000100051001410000000000000000004036769000290001                         0210000272941495200ACME   WORLDWIDEDIRECT DEPOSIT      9954245682CCDA/P             060802214112200003000021962210700543200004001191477   000005000010000142611008 100815047371712006      012200003654803062210700543200004001191477   000014750010000142611008 100815047375772006      0122000036548031820000000200214010860000000000000000001975009954245682                         1220000300002195200BEST BANK NA    5046001042958       9560900031CCDEDI PAYMNT      05111812310211011000000146220510014149995275638771    0000037500504058967      XXXXXXXX BRANCH INC     1021101100001681705RMR*OI*0140611**-1170.49*25*1170.36*                                            000100016816220610002279990124617283    0023519545504058968      XXXXXXXXXXXXX SERVICE   1021101100001682705RMR*ADG*504058968                                                               000100016826220211011089997375415088    0000690240502397811      XXXXXX INC              00211011000016836220510014149998010236916    0000662215502397782      XXXXXXXXXXXXXXXXXXXXXX  0021101100001684820000000600184104140000000000000000249095009560900031                         0211011000000145200SCISSORS                            4042896127CCDBATCH     08080606080822010112003600014376220910000190001065201       0100813537101017         5M CORPORATION          0011200362667919820000000100091000010000000000000001008135374042896127                         0112003600014379000005000003000000110064712185000542151200000126324213                                       9999999999999999999999999999999999999999999999999999999999999999999999999999999999999999999999999999999999999999999999999999999999999999999999999999999999999999999999999999999999999999999999999999999999999999999999999999999999999999999999999999999999999999999999999999999999999999999999999999999999999999999999999999999999999999999999999999999999999999999999999999999999999999999999999999999999999999999999999999999999999999999999999999999999999999999999999999999999999999999999999999999999999999999999999999999999999999999999999999999999999999999999999999999999999999999999999999999999999999999999999999999999999999999999999999999999999999999999999999999999