101 273222259 2711111139006252030A094101LOL Services           XYZ Trust                      5225AM Club         DUES                1249999991PPDMONTH DUES062590900626000127111111000000162734513093631872-76548      00000600005130           Beth Connor           070271111110000301822500000100345130930000000600000000000000001249999991                         2711111100000015220BEL, Inc.       DIRECT DEPOSIT      9333333331PPDDIRECT PAY06259090062700012711111100000026223451309367780-8769        0003000000343-34-3434    Roy Ainge             011271111110000303705343-34-3434                                                                     00010000303822000000100345130930000000000000000030000009333333331                         2711111100000029000002000001000000020069026186000000060000000003000000                                       99999999999999999999999999999999999999999999999999999999999999999999999999999999999999999999999999999999999999999999999999999999999999999999999999999999999999999999999999999999999999999999
